{
  "_format": "hh-sol-artifact-1",
  "contractName": "BuyMeACoffee",
  "sourceName": "contracts/BuyMeACoffee.sol",
  "abi": [
    {
      "inputs": [],
      "stateMutability": "nonpayable",
      "type": "constructor"
    },
    {
      "anonymous": false,
      "inputs": [
        {
          "indexed": true,
          "internalType": "address",
          "name": "from",
          "type": "address"
        },
        {
          "indexed": false,
          "internalType": "uint256",
          "name": "timestamp",
          "type": "uint256"
        },
        {
          "indexed": false,
          "internalType": "string",
          "name": "name",
          "type": "string"
        },
        {
          "indexed": false,
          "internalType": "string",
          "name": "message",
          "type": "string"
        }
      ],
      "name": "NewMemo",
      "type": "event"
    },
    {
      "inputs": [
        {
          "internalType": "string",
          "name": "_name",
          "type": "string"
        },
        {
          "internalType": "string",
          "name": "_message",
          "type": "string"
        }
      ],
      "name": "buyCoffee",
      "outputs": [],
      "stateMutability": "payable",
      "type": "function"
    },
    {
      "inputs": [],
      "name": "getMemos",
      "outputs": [
        {
          "components": [
            {
              "internalType": "address",
              "name": "from",
              "type": "address"
            },
            {
              "internalType": "uint256",
              "name": "timestamp",
              "type": "uint256"
            },
            {
              "internalType": "string",
              "name": "name",
              "type": "string"
            },
            {
              "internalType": "string",
              "name": "message",
              "type": "string"
            }
          ],
          "internalType": "struct BuyMeACoffee.Memo[]",
          "name": "",
          "type": "tuple[]"
        }
      ],
      "stateMutability": "view",
      "type": "function"
    },
    {
      "inputs": [],
      "name": "withdrawTips",
      "outputs": [],
      "stateMutability": "nonpayable",
      "type": "function"
    }
  ],
  "bytecode": "0x608060405234801561001057600080fd5b50336000806101000a81548173ffffffffffffffffffffffffffffffffffffffff021916908373ffffffffffffffffffffffffffffffffffffffff160217905550610d0d806100606000396000f3fe6080604052600436106100345760003560e01c8063204206e1146100395780633aaa74b214610055578063865c51721461006c575b600080fd5b610053600480360381019061004e91906105e4565b610097565b005b34801561006157600080fd5b5061006a610211565b005b34801561007857600080fd5b506100816102a7565b60405161008e9190610861565b60405180910390f35b600034116100da576040517f08c379a00000000000000000000000000000000000000000000000000000000081526004016100d1906108e0565b60405180910390fd5b600160405180608001604052803373ffffffffffffffffffffffffffffffffffffffff16815260200142815260200184815260200183815250908060018154018082558091505060019003906000526020600020906004020160009091909190915060008201518160000160006101000a81548173ffffffffffffffffffffffffffffffffffffffff021916908373ffffffffffffffffffffffffffffffffffffffff1602179055506020820151816001015560408201518160020190816101a29190610b0c565b5060608201518160030190816101b89190610b0c565b5050503373ffffffffffffffffffffffffffffffffffffffff167fc56140e05f516509ae28110e0f72e17558a7561630dad2647c3ae87d986e365c42848460405161020593929190610c26565b60405180910390a25050565b60008054906101000a900473ffffffffffffffffffffffffffffffffffffffff1673ffffffffffffffffffffffffffffffffffffffff166108fc479081150290604051600060405180830381858888f193505050506102a5576040517f08c379a000000000000000000000000000000000000000000000000000000000815260040161029c90610cb7565b60405180910390fd5b565b60606001805480602002602001604051908101604052809291908181526020016000905b8282101561048157838290600052602060002090600402016040518060800160405290816000820160009054906101000a900473ffffffffffffffffffffffffffffffffffffffff1673ffffffffffffffffffffffffffffffffffffffff1673ffffffffffffffffffffffffffffffffffffffff1681526020016001820154815260200160028201805461035e9061092f565b80601f016020809104026020016040519081016040528092919081815260200182805461038a9061092f565b80156103d75780601f106103ac576101008083540402835291602001916103d7565b820191906000526020600020905b8154815290600101906020018083116103ba57829003601f168201915b505050505081526020016003820180546103f09061092f565b80601f016020809104026020016040519081016040528092919081815260200182805461041c9061092f565b80156104695780601f1061043e57610100808354040283529160200191610469565b820191906000526020600020905b81548152906001019060200180831161044c57829003601f168201915b505050505081525050815260200190600101906102cb565b50505050905090565b6000604051905090565b600080fd5b600080fd5b600080fd5b600080fd5b6000601f19601f8301169050919050565b7f4e487b7100000000000000000000000000000000000000000000000000000000600052604160045260246000fd5b6104f1826104a8565b810181811067ffffffffffffffff821117156105105761050f6104b9565b5b80604052505050565b600061052361048a565b905061052f82826104e8565b919050565b600067ffffffffffffffff82111561054f5761054e6104b9565b5b610558826104a8565b9050602081019050919050565b82818337600083830152505050565b600061058761058284610534565b610519565b9050828152602081018484840111156105a3576105a26104a3565b5b6105ae848285610565565b509392505050565b600082601f8301126105cb576105ca61049e565b5b81356105db848260208601610574565b91505092915050565b600080604083850312156105fb576105fa610494565b5b600083013567ffffffffffffffff81111561061957610618610499565b5b610625858286016105b6565b925050602083013567ffffffffffffffff81111561064657610645610499565b5b610652858286016105b6565b9150509250929050565b600081519050919050565b600082825260208201905092915050565b6000819050602082019050919050565b600073ffffffffffffffffffffffffffffffffffffffff82169050919050565b60006106b382610688565b9050919050565b6106c3816106a8565b82525050565b6000819050919050565b6106dc816106c9565b82525050565b600081519050919050565b600082825260208201905092915050565b60005b8381101561071c578082015181840152602081019050610701565b60008484015250505050565b6000610733826106e2565b61073d81856106ed565b935061074d8185602086016106fe565b610756816104a8565b840191505092915050565b600060808301600083015161077960008601826106ba565b50602083015161078c60208601826106d3565b50604083015184820360408601526107a48282610728565b915050606083015184820360608601526107be8282610728565b9150508091505092915050565b60006107d78383610761565b905092915050565b6000602082019050919050565b60006107f78261065c565b6108018185610667565b93508360208202850161081385610678565b8060005b8581101561084f578484038952815161083085826107cb565b945061083b836107df565b925060208a01995050600181019050610817565b50829750879550505050505092915050565b6000602082019050818103600083015261087b81846107ec565b905092915050565b600082825260208201905092915050565b7f63616e27742062757920636f6666656520666f72206672656521000000000000600082015250565b60006108ca601a83610883565b91506108d582610894565b602082019050919050565b600060208201905081810360008301526108f9816108bd565b9050919050565b7f4e487b7100000000000000000000000000000000000000000000000000000000600052602260045260246000fd5b6000600282049050600182168061094757607f821691505b60208210810361095a57610959610900565b5b50919050565b60008190508160005260206000209050919050565b60006020601f8301049050919050565b600082821b905092915050565b6000600883026109c27fffffffffffffffffffffffffffffffffffffffffffffffffffffffffffffffff82610985565b6109cc8683610985565b95508019841693508086168417925050509392505050565b6000819050919050565b6000610a09610a046109ff846106c9565b6109e4565b6106c9565b9050919050565b6000819050919050565b610a23836109ee565b610a37610a2f82610a10565b848454610992565b825550505050565b600090565b610a4c610a3f565b610a57818484610a1a565b505050565b5b81811015610a7b57610a70600082610a44565b600181019050610a5d565b5050565b601f821115610ac057610a9181610960565b610a9a84610975565b81016020851015610aa9578190505b610abd610ab585610975565b830182610a5c565b50505b505050565b600082821c905092915050565b6000610ae360001984600802610ac5565b1980831691505092915050565b6000610afc8383610ad2565b9150826002028217905092915050565b610b15826106e2565b67ffffffffffffffff811115610b2e57610b2d6104b9565b5b610b38825461092f565b610b43828285610a7f565b600060209050601f831160018114610b765760008415610b64578287015190505b610b6e8582610af0565b865550610bd6565b601f198416610b8486610960565b60005b82811015610bac57848901518255600182019150602085019450602081019050610b87565b86831015610bc95784890151610bc5601f891682610ad2565b8355505b6001600288020188555050505b505050505050565b610be7816106c9565b82525050565b6000610bf8826106e2565b610c028185610883565b9350610c128185602086016106fe565b610c1b816104a8565b840191505092915050565b6000606082019050610c3b6000830186610bde565b8181036020830152610c4d8185610bed565b90508181036040830152610c618184610bed565b9050949350505050565b7f4661696c656420746f2073656e64204574686572000000000000000000000000600082015250565b6000610ca1601483610883565b9150610cac82610c6b565b602082019050919050565b60006020820190508181036000830152610cd081610c94565b905091905056fea2646970667358221220c166c91762f24caf25ddcd09851dfcbf5ddba6b39ba48bce41e52a2183c6770b64736f6c63430008130033",
  "linkReferences": {},
  "deployedLinkReferences": {}
}